{
	"data": {
		"bytecode": {
			"linkReferences": {},
			"object": "60806040525f60023461001291906100df565b14610052576040517f08c379a000000000000000000000000000000000000000000000000000000000815260040161004990610169565b60405180910390fd5b3360015f6101000a81548173ffffffffffffffffffffffffffffffffffffffff021916908373ffffffffffffffffffffffffffffffffffffffff16021790555060023461009f9190610187565b5f819055506101b7565b5f819050919050565b7f4e487b71000000000000000000000000000000000000000000000000000000005f52601260045260245ffd5b5f6100e9826100a9565b91506100f4836100a9565b925082610104576101036100b2565b5b828206905092915050565b5f82825260208201905092915050565b7f76616c7565206e6f74206576656e0000000000000000000000000000000000005f82015250565b5f610153600e8361010f565b915061015e8261011f565b602082019050919050565b5f6020820190508181035f83015261018081610147565b9050919050565b5f610191826100a9565b915061019c836100a9565b9250826101ac576101ab6100b2565b5b828204905092915050565b610a07806101c45f395ff3fe608060405260043610610049575f3560e01c806335a063b41461004d578063a194a8ef14610063578063c19d93fb14610079578063c7981b1b146100a3578063d6960697146100b9575b5f5ffd5b348015610058575f5ffd5b506100616100c3565b005b34801561006e575f5ffd5b506100776102b0565b005b348015610084575f5ffd5b5061008d61047b565b60405161009a91906107fa565b60405180910390f35b3480156100ae575f5ffd5b506100b761048e565b005b6100c161065d565b005b5f8060038111156100d7576100d6610787565b5b600260149054906101000a900460ff1660038111156100f9576100f8610787565b5b14610130576040517f1cb4c2f600000000000000000000000000000000000000000000000000000000815260040160405180910390fd5b60015f9054906101000a900473ffffffffffffffffffffffffffffffffffffffff1673ffffffffffffffffffffffffffffffffffffffff163373ffffffffffffffffffffffffffffffffffffffff16146101b6576040517fd7d8bd0800000000000000000000000000000000000000000000000000000000815260040160405180910390fd5b7f72c874aeff0b183a56e2b79c71b46e1aed4dee5e09862134b8821ba2fddbf8bf60405160405180910390a16003600260146101000a81548160ff0219169083600381111561020857610207610787565b5b02179055505f3373ffffffffffffffffffffffffffffffffffffffff164760405161023290610840565b5f6040518083038185875af1925050503d805f811461026c576040519150601f19603f3d011682016040523d82523d5f602084013e610271565b606091505b50509050806102ac576040517fc358c2ba00000000000000000000000000000000000000000000000000000000815260040160405180910390fd5b5050565b60025f9054906101000a900473ffffffffffffffffffffffffffffffffffffffff1673ffffffffffffffffffffffffffffffffffffffff163373ffffffffffffffffffffffffffffffffffffffff1614610336576040517f5ee49b7a00000000000000000000000000000000000000000000000000000000815260040160405180910390fd5b600180600381111561034b5761034a610787565b5b600260149054906101000a900460ff16600381111561036d5761036c610787565b5b146103a4576040517f1cb4c2f600000000000000000000000000000000000000000000000000000000815260040160405180910390fd5b60028060146101000a81548160ff021916908360038111156103c9576103c8610787565b5b02179055505f3373ffffffffffffffffffffffffffffffffffffffff165f546040516103f490610840565b5f6040518083038185875af1925050503d805f811461042e576040519150601f19603f3d011682016040523d82523d5f602084013e610433565b606091505b5050905080610477576040517f08c379a000000000000000000000000000000000000000000000000000000000815260040161046e906108ae565b60405180910390fd5b5050565b600260149054906101000a900460ff1681565b60015f9054906101000a900473ffffffffffffffffffffffffffffffffffffffff1673ffffffffffffffffffffffffffffffffffffffff163373ffffffffffffffffffffffffffffffffffffffff1614610514576040517fd7d8bd0800000000000000000000000000000000000000000000000000000000815260040160405180910390fd5b600280600381111561052957610528610787565b5b600260149054906101000a900460ff16600381111561054b5761054a610787565b5b14610582576040517f1cb4c2f600000000000000000000000000000000000000000000000000000000815260040160405180910390fd5b6003600260146101000a81548160ff021916908360038111156105a8576105a7610787565b5b02179055505f3373ffffffffffffffffffffffffffffffffffffffff1660035f546105d39190610902565b6040516105df90610840565b5f6040518083038185875af1925050503d805f8114610619576040519150601f19603f3d011682016040523d82523d5f602084013e61061e565b606091505b5050905080610659576040517fc358c2ba00000000000000000000000000000000000000000000000000000000815260040160405180910390fd5b5050565b5f80600381111561067157610670610787565b5b600260149054906101000a900460ff16600381111561069357610692610787565b5b146106ca576040517f1cb4c2f600000000000000000000000000000000000000000000000000000000815260040160405180910390fd5b5f5460026106d89190610902565b3414610719576040517f08c379a0000000000000000000000000000000000000000000000000000000008152600401610710906109b3565b60405180910390fd5b6001600260146101000a81548160ff0219169083600381111561073f5761073e610787565b5b02179055503360025f6101000a81548173ffffffffffffffffffffffffffffffffffffffff021916908373ffffffffffffffffffffffffffffffffffffffff16021790555050565b7f4e487b71000000000000000000000000000000000000000000000000000000005f52602160045260245ffd5b600481106107c5576107c4610787565b5b50565b5f8190506107d5826107b4565b919050565b5f6107e4826107c8565b9050919050565b6107f4816107da565b82525050565b5f60208201905061080d5f8301846107eb565b92915050565b5f81905092915050565b50565b5f61082b5f83610813565b91506108368261081d565b5f82019050919050565b5f61084a82610820565b9150819050919050565b5f82825260208201905092915050565b7f5265636965766520556e7375636365737366756c0000000000000000000000005f82015250565b5f610898601483610854565b91506108a382610864565b602082019050919050565b5f6020820190508181035f8301526108c58161088c565b9050919050565b5f819050919050565b7f4e487b71000000000000000000000000000000000000000000000000000000005f52601160045260245ffd5b5f61090c826108cc565b9150610917836108cc565b9250828202610925816108cc565b9150828204841483151761093c5761093b6108d5565b5b5092915050565b7f6d73672e76616c7565206e6565647320746f206265207477696365206f6620765f8201527f616c756500000000000000000000000000000000000000000000000000000000602082015250565b5f61099d602483610854565b91506109a882610943565b604082019050919050565b5f6020820190508181035f8301526109ca81610991565b905091905056fea264697066735822122010095efe1d4ac8c67dc5789fb7f0b233e953c2096c18c235088d4de14607d2f964736f6c634300081b0033",
			"opcodes": "PUSH1 0x80 PUSH1 0x40 MSTORE PUSH0 PUSH1 0x2 CALLVALUE PUSH2 0x12 SWAP2 SWAP1 PUSH2 0xDF JUMP JUMPDEST EQ PUSH2 0x52 JUMPI PUSH1 0x40 MLOAD PUSH32 0x8C379A000000000000000000000000000000000000000000000000000000000 DUP2 MSTORE PUSH1 0x4 ADD PUSH2 0x49 SWAP1 PUSH2 0x169 JUMP JUMPDEST PUSH1 0x40 MLOAD DUP1 SWAP2 SUB SWAP1 REVERT JUMPDEST CALLER PUSH1 0x1 PUSH0 PUSH2 0x100 EXP DUP2 SLOAD DUP2 PUSH20 0xFFFFFFFFFFFFFFFFFFFFFFFFFFFFFFFFFFFFFFFF MUL NOT AND SWAP1 DUP4 PUSH20 0xFFFFFFFFFFFFFFFFFFFFFFFFFFFFFFFFFFFFFFFF AND MUL OR SWAP1 SSTORE POP PUSH1 0x2 CALLVALUE PUSH2 0x9F SWAP2 SWAP1 PUSH2 0x187 JUMP JUMPDEST PUSH0 DUP2 SWAP1 SSTORE POP PUSH2 0x1B7 JUMP JUMPDEST PUSH0 DUP2 SWAP1 POP SWAP2 SWAP1 POP JUMP JUMPDEST PUSH32 0x4E487B7100000000000000000000000000000000000000000000000000000000 PUSH0 MSTORE PUSH1 0x12 PUSH1 0x4 MSTORE PUSH1 0x24 PUSH0 REVERT JUMPDEST PUSH0 PUSH2 0xE9 DUP3 PUSH2 0xA9 JUMP JUMPDEST SWAP2 POP PUSH2 0xF4 DUP4 PUSH2 0xA9 JUMP JUMPDEST SWAP3 POP DUP3 PUSH2 0x104 JUMPI PUSH2 0x103 PUSH2 0xB2 JUMP JUMPDEST JUMPDEST DUP3 DUP3 MOD SWAP1 POP SWAP3 SWAP2 POP POP JUMP JUMPDEST PUSH0 DUP3 DUP3 MSTORE PUSH1 0x20 DUP3 ADD SWAP1 POP SWAP3 SWAP2 POP POP JUMP JUMPDEST PUSH32 0x76616C7565206E6F74206576656E000000000000000000000000000000000000 PUSH0 DUP3 ADD MSTORE POP JUMP JUMPDEST PUSH0 PUSH2 0x153 PUSH1 0xE DUP4 PUSH2 0x10F JUMP JUMPDEST SWAP2 POP PUSH2 0x15E DUP3 PUSH2 0x11F JUMP JUMPDEST PUSH1 0x20 DUP3 ADD SWAP1 POP SWAP2 SWAP1 POP JUMP JUMPDEST PUSH0 PUSH1 0x20 DUP3 ADD SWAP1 POP DUP2 DUP2 SUB PUSH0 DUP4 ADD MSTORE PUSH2 0x180 DUP2 PUSH2 0x147 JUMP JUMPDEST SWAP1 POP SWAP2 SWAP1 POP JUMP JUMPDEST PUSH0 PUSH2 0x191 DUP3 PUSH2 0xA9 JUMP JUMPDEST SWAP2 POP PUSH2 0x19C DUP4 PUSH2 0xA9 JUMP JUMPDEST SWAP3 POP DUP3 PUSH2 0x1AC JUMPI PUSH2 0x1AB PUSH2 0xB2 JUMP JUMPDEST JUMPDEST DUP3 DUP3 DIV SWAP1 POP SWAP3 SWAP2 POP POP JUMP JUMPDEST PUSH2 0xA07 DUP1 PUSH2 0x1C4 PUSH0 CODECOPY PUSH0 RETURN INVALID PUSH1 0x80 PUSH1 0x40 MSTORE PUSH1 0x4 CALLDATASIZE LT PUSH2 0x49 JUMPI PUSH0 CALLDATALOAD PUSH1 0xE0 SHR DUP1 PUSH4 0x35A063B4 EQ PUSH2 0x4D JUMPI DUP1 PUSH4 0xA194A8EF EQ PUSH2 0x63 JUMPI DUP1 PUSH4 0xC19D93FB EQ PUSH2 0x79 JUMPI DUP1 PUSH4 0xC7981B1B EQ PUSH2 0xA3 JUMPI DUP1 PUSH4 0xD6960697 EQ PUSH2 0xB9 JUMPI JUMPDEST PUSH0 PUSH0 REVERT JUMPDEST CALLVALUE DUP1 ISZERO PUSH2 0x58 JUMPI PUSH0 PUSH0 REVERT JUMPDEST POP PUSH2 0x61 PUSH2 0xC3 JUMP JUMPDEST STOP JUMPDEST CALLVALUE DUP1 ISZERO PUSH2 0x6E JUMPI PUSH0 PUSH0 REVERT JUMPDEST POP PUSH2 0x77 PUSH2 0x2B0 JUMP JUMPDEST STOP JUMPDEST CALLVALUE DUP1 ISZERO PUSH2 0x84 JUMPI PUSH0 PUSH0 REVERT JUMPDEST POP PUSH2 0x8D PUSH2 0x47B JUMP JUMPDEST PUSH1 0x40 MLOAD PUSH2 0x9A SWAP2 SWAP1 PUSH2 0x7FA JUMP JUMPDEST PUSH1 0x40 MLOAD DUP1 SWAP2 SUB SWAP1 RETURN JUMPDEST CALLVALUE DUP1 ISZERO PUSH2 0xAE JUMPI PUSH0 PUSH0 REVERT JUMPDEST POP PUSH2 0xB7 PUSH2 0x48E JUMP JUMPDEST STOP JUMPDEST PUSH2 0xC1 PUSH2 0x65D JUMP JUMPDEST STOP JUMPDEST PUSH0 DUP1 PUSH1 0x3 DUP2 GT ISZERO PUSH2 0xD7 JUMPI PUSH2 0xD6 PUSH2 0x787 JUMP JUMPDEST JUMPDEST PUSH1 0x2 PUSH1 0x14 SWAP1 SLOAD SWAP1 PUSH2 0x100 EXP SWAP1 DIV PUSH1 0xFF AND PUSH1 0x3 DUP2 GT ISZERO PUSH2 0xF9 JUMPI PUSH2 0xF8 PUSH2 0x787 JUMP JUMPDEST JUMPDEST EQ PUSH2 0x130 JUMPI PUSH1 0x40 MLOAD PUSH32 0x1CB4C2F600000000000000000000000000000000000000000000000000000000 DUP2 MSTORE PUSH1 0x4 ADD PUSH1 0x40 MLOAD DUP1 SWAP2 SUB SWAP1 REVERT JUMPDEST PUSH1 0x1 PUSH0 SWAP1 SLOAD SWAP1 PUSH2 0x100 EXP SWAP1 DIV PUSH20 0xFFFFFFFFFFFFFFFFFFFFFFFFFFFFFFFFFFFFFFFF AND PUSH20 0xFFFFFFFFFFFFFFFFFFFFFFFFFFFFFFFFFFFFFFFF AND CALLER PUSH20 0xFFFFFFFFFFFFFFFFFFFFFFFFFFFFFFFFFFFFFFFF AND EQ PUSH2 0x1B6 JUMPI PUSH1 0x40 MLOAD PUSH32 0xD7D8BD0800000000000000000000000000000000000000000000000000000000 DUP2 MSTORE PUSH1 0x4 ADD PUSH1 0x40 MLOAD DUP1 SWAP2 SUB SWAP1 REVERT JUMPDEST PUSH32 0x72C874AEFF0B183A56E2B79C71B46E1AED4DEE5E09862134B8821BA2FDDBF8BF PUSH1 0x40 MLOAD PUSH1 0x40 MLOAD DUP1 SWAP2 SUB SWAP1 LOG1 PUSH1 0x3 PUSH1 0x2 PUSH1 0x14 PUSH2 0x100 EXP DUP2 SLOAD DUP2 PUSH1 0xFF MUL NOT AND SWAP1 DUP4 PUSH1 0x3 DUP2 GT ISZERO PUSH2 0x208 JUMPI PUSH2 0x207 PUSH2 0x787 JUMP JUMPDEST JUMPDEST MUL OR SWAP1 SSTORE POP PUSH0 CALLER PUSH20 0xFFFFFFFFFFFFFFFFFFFFFFFFFFFFFFFFFFFFFFFF AND SELFBALANCE PUSH1 0x40 MLOAD PUSH2 0x232 SWAP1 PUSH2 0x840 JUMP JUMPDEST PUSH0 PUSH1 0x40 MLOAD DUP1 DUP4 SUB DUP2 DUP6 DUP8 GAS CALL SWAP3 POP POP POP RETURNDATASIZE DUP1 PUSH0 DUP2 EQ PUSH2 0x26C JUMPI PUSH1 0x40 MLOAD SWAP2 POP PUSH1 0x1F NOT PUSH1 0x3F RETURNDATASIZE ADD AND DUP3 ADD PUSH1 0x40 MSTORE RETURNDATASIZE DUP3 MSTORE RETURNDATASIZE PUSH0 PUSH1 0x20 DUP5 ADD RETURNDATACOPY PUSH2 0x271 JUMP JUMPDEST PUSH1 0x60 SWAP2 POP JUMPDEST POP POP SWAP1 POP DUP1 PUSH2 0x2AC JUMPI PUSH1 0x40 MLOAD PUSH32 0xC358C2BA00000000000000000000000000000000000000000000000000000000 DUP2 MSTORE PUSH1 0x4 ADD PUSH1 0x40 MLOAD DUP1 SWAP2 SUB SWAP1 REVERT JUMPDEST POP POP JUMP JUMPDEST PUSH1 0x2 PUSH0 SWAP1 SLOAD SWAP1 PUSH2 0x100 EXP SWAP1 DIV PUSH20 0xFFFFFFFFFFFFFFFFFFFFFFFFFFFFFFFFFFFFFFFF AND PUSH20 0xFFFFFFFFFFFFFFFFFFFFFFFFFFFFFFFFFFFFFFFF AND CALLER PUSH20 0xFFFFFFFFFFFFFFFFFFFFFFFFFFFFFFFFFFFFFFFF AND EQ PUSH2 0x336 JUMPI PUSH1 0x40 MLOAD PUSH32 0x5EE49B7A00000000000000000000000000000000000000000000000000000000 DUP2 MSTORE PUSH1 0x4 ADD PUSH1 0x40 MLOAD DUP1 SWAP2 SUB SWAP1 REVERT JUMPDEST PUSH1 0x1 DUP1 PUSH1 0x3 DUP2 GT ISZERO PUSH2 0x34B JUMPI PUSH2 0x34A PUSH2 0x787 JUMP JUMPDEST JUMPDEST PUSH1 0x2 PUSH1 0x14 SWAP1 SLOAD SWAP1 PUSH2 0x100 EXP SWAP1 DIV PUSH1 0xFF AND PUSH1 0x3 DUP2 GT ISZERO PUSH2 0x36D JUMPI PUSH2 0x36C PUSH2 0x787 JUMP JUMPDEST JUMPDEST EQ PUSH2 0x3A4 JUMPI PUSH1 0x40 MLOAD PUSH32 0x1CB4C2F600000000000000000000000000000000000000000000000000000000 DUP2 MSTORE PUSH1 0x4 ADD PUSH1 0x40 MLOAD DUP1 SWAP2 SUB SWAP1 REVERT JUMPDEST PUSH1 0x2 DUP1 PUSH1 0x14 PUSH2 0x100 EXP DUP2 SLOAD DUP2 PUSH1 0xFF MUL NOT AND SWAP1 DUP4 PUSH1 0x3 DUP2 GT ISZERO PUSH2 0x3C9 JUMPI PUSH2 0x3C8 PUSH2 0x787 JUMP JUMPDEST JUMPDEST MUL OR SWAP1 SSTORE POP PUSH0 CALLER PUSH20 0xFFFFFFFFFFFFFFFFFFFFFFFFFFFFFFFFFFFFFFFF AND PUSH0 SLOAD PUSH1 0x40 MLOAD PUSH2 0x3F4 SWAP1 PUSH2 0x840 JUMP JUMPDEST PUSH0 PUSH1 0x40 MLOAD DUP1 DUP4 SUB DUP2 DUP6 DUP8 GAS CALL SWAP3 POP POP POP RETURNDATASIZE DUP1 PUSH0 DUP2 EQ PUSH2 0x42E JUMPI PUSH1 0x40 MLOAD SWAP2 POP PUSH1 0x1F NOT PUSH1 0x3F RETURNDATASIZE ADD AND DUP3 ADD PUSH1 0x40 MSTORE RETURNDATASIZE DUP3 MSTORE RETURNDATASIZE PUSH0 PUSH1 0x20 DUP5 ADD RETURNDATACOPY PUSH2 0x433 JUMP JUMPDEST PUSH1 0x60 SWAP2 POP JUMPDEST POP POP SWAP1 POP DUP1 PUSH2 0x477 JUMPI PUSH1 0x40 MLOAD PUSH32 0x8C379A000000000000000000000000000000000000000000000000000000000 DUP2 MSTORE PUSH1 0x4 ADD PUSH2 0x46E SWAP1 PUSH2 0x8AE JUMP JUMPDEST PUSH1 0x40 MLOAD DUP1 SWAP2 SUB SWAP1 REVERT JUMPDEST POP POP JUMP JUMPDEST PUSH1 0x2 PUSH1 0x14 SWAP1 SLOAD SWAP1 PUSH2 0x100 EXP SWAP1 DIV PUSH1 0xFF AND DUP2 JUMP JUMPDEST PUSH1 0x1 PUSH0 SWAP1 SLOAD SWAP1 PUSH2 0x100 EXP SWAP1 DIV PUSH20 0xFFFFFFFFFFFFFFFFFFFFFFFFFFFFFFFFFFFFFFFF AND PUSH20 0xFFFFFFFFFFFFFFFFFFFFFFFFFFFFFFFFFFFFFFFF AND CALLER PUSH20 0xFFFFFFFFFFFFFFFFFFFFFFFFFFFFFFFFFFFFFFFF AND EQ PUSH2 0x514 JUMPI PUSH1 0x40 MLOAD PUSH32 0xD7D8BD0800000000000000000000000000000000000000000000000000000000 DUP2 MSTORE PUSH1 0x4 ADD PUSH1 0x40 MLOAD DUP1 SWAP2 SUB SWAP1 REVERT JUMPDEST PUSH1 0x2 DUP1 PUSH1 0x3 DUP2 GT ISZERO PUSH2 0x529 JUMPI PUSH2 0x528 PUSH2 0x787 JUMP JUMPDEST JUMPDEST PUSH1 0x2 PUSH1 0x14 SWAP1 SLOAD SWAP1 PUSH2 0x100 EXP SWAP1 DIV PUSH1 0xFF AND PUSH1 0x3 DUP2 GT ISZERO PUSH2 0x54B JUMPI PUSH2 0x54A PUSH2 0x787 JUMP JUMPDEST JUMPDEST EQ PUSH2 0x582 JUMPI PUSH1 0x40 MLOAD PUSH32 0x1CB4C2F600000000000000000000000000000000000000000000000000000000 DUP2 MSTORE PUSH1 0x4 ADD PUSH1 0x40 MLOAD DUP1 SWAP2 SUB SWAP1 REVERT JUMPDEST PUSH1 0x3 PUSH1 0x2 PUSH1 0x14 PUSH2 0x100 EXP DUP2 SLOAD DUP2 PUSH1 0xFF MUL NOT AND SWAP1 DUP4 PUSH1 0x3 DUP2 GT ISZERO PUSH2 0x5A8 JUMPI PUSH2 0x5A7 PUSH2 0x787 JUMP JUMPDEST JUMPDEST MUL OR SWAP1 SSTORE POP PUSH0 CALLER PUSH20 0xFFFFFFFFFFFFFFFFFFFFFFFFFFFFFFFFFFFFFFFF AND PUSH1 0x3 PUSH0 SLOAD PUSH2 0x5D3 SWAP2 SWAP1 PUSH2 0x902 JUMP JUMPDEST PUSH1 0x40 MLOAD PUSH2 0x5DF SWAP1 PUSH2 0x840 JUMP JUMPDEST PUSH0 PUSH1 0x40 MLOAD DUP1 DUP4 SUB DUP2 DUP6 DUP8 GAS CALL SWAP3 POP POP POP RETURNDATASIZE DUP1 PUSH0 DUP2 EQ PUSH2 0x619 JUMPI PUSH1 0x40 MLOAD SWAP2 POP PUSH1 0x1F NOT PUSH1 0x3F RETURNDATASIZE ADD AND DUP3 ADD PUSH1 0x40 MSTORE RETURNDATASIZE DUP3 MSTORE RETURNDATASIZE PUSH0 PUSH1 0x20 DUP5 ADD RETURNDATACOPY PUSH2 0x61E JUMP JUMPDEST PUSH1 0x60 SWAP2 POP JUMPDEST POP POP SWAP1 POP DUP1 PUSH2 0x659 JUMPI PUSH1 0x40 MLOAD PUSH32 0xC358C2BA00000000000000000000000000000000000000000000000000000000 DUP2 MSTORE PUSH1 0x4 ADD PUSH1 0x40 MLOAD DUP1 SWAP2 SUB SWAP1 REVERT JUMPDEST POP POP JUMP JUMPDEST PUSH0 DUP1 PUSH1 0x3 DUP2 GT ISZERO PUSH2 0x671 JUMPI PUSH2 0x670 PUSH2 0x787 JUMP JUMPDEST JUMPDEST PUSH1 0x2 PUSH1 0x14 SWAP1 SLOAD SWAP1 PUSH2 0x100 EXP SWAP1 DIV PUSH1 0xFF AND PUSH1 0x3 DUP2 GT ISZERO PUSH2 0x693 JUMPI PUSH2 0x692 PUSH2 0x787 JUMP JUMPDEST JUMPDEST EQ PUSH2 0x6CA JUMPI PUSH1 0x40 MLOAD PUSH32 0x1CB4C2F600000000000000000000000000000000000000000000000000000000 DUP2 MSTORE PUSH1 0x4 ADD PUSH1 0x40 MLOAD DUP1 SWAP2 SUB SWAP1 REVERT JUMPDEST PUSH0 SLOAD PUSH1 0x2 PUSH2 0x6D8 SWAP2 SWAP1 PUSH2 0x902 JUMP JUMPDEST CALLVALUE EQ PUSH2 0x719 JUMPI PUSH1 0x40 MLOAD PUSH32 0x8C379A000000000000000000000000000000000000000000000000000000000 DUP2 MSTORE PUSH1 0x4 ADD PUSH2 0x710 SWAP1 PUSH2 0x9B3 JUMP JUMPDEST PUSH1 0x40 MLOAD DUP1 SWAP2 SUB SWAP1 REVERT JUMPDEST PUSH1 0x1 PUSH1 0x2 PUSH1 0x14 PUSH2 0x100 EXP DUP2 SLOAD DUP2 PUSH1 0xFF MUL NOT AND SWAP1 DUP4 PUSH1 0x3 DUP2 GT ISZERO PUSH2 0x73F JUMPI PUSH2 0x73E PUSH2 0x787 JUMP JUMPDEST JUMPDEST MUL OR SWAP1 SSTORE POP CALLER PUSH1 0x2 PUSH0 PUSH2 0x100 EXP DUP2 SLOAD DUP2 PUSH20 0xFFFFFFFFFFFFFFFFFFFFFFFFFFFFFFFFFFFFFFFF MUL NOT AND SWAP1 DUP4 PUSH20 0xFFFFFFFFFFFFFFFFFFFFFFFFFFFFFFFFFFFFFFFF AND MUL OR SWAP1 SSTORE POP POP JUMP JUMPDEST PUSH32 0x4E487B7100000000000000000000000000000000000000000000000000000000 PUSH0 MSTORE PUSH1 0x21 PUSH1 0x4 MSTORE PUSH1 0x24 PUSH0 REVERT JUMPDEST PUSH1 0x4 DUP2 LT PUSH2 0x7C5 JUMPI PUSH2 0x7C4 PUSH2 0x787 JUMP JUMPDEST JUMPDEST POP JUMP JUMPDEST PUSH0 DUP2 SWAP1 POP PUSH2 0x7D5 DUP3 PUSH2 0x7B4 JUMP JUMPDEST SWAP2 SWAP1 POP JUMP JUMPDEST PUSH0 PUSH2 0x7E4 DUP3 PUSH2 0x7C8 JUMP JUMPDEST SWAP1 POP SWAP2 SWAP1 POP JUMP JUMPDEST PUSH2 0x7F4 DUP2 PUSH2 0x7DA JUMP JUMPDEST DUP3 MSTORE POP POP JUMP JUMPDEST PUSH0 PUSH1 0x20 DUP3 ADD SWAP1 POP PUSH2 0x80D PUSH0 DUP4 ADD DUP5 PUSH2 0x7EB JUMP JUMPDEST SWAP3 SWAP2 POP POP JUMP JUMPDEST PUSH0 DUP2 SWAP1 POP SWAP3 SWAP2 POP POP JUMP JUMPDEST POP JUMP JUMPDEST PUSH0 PUSH2 0x82B PUSH0 DUP4 PUSH2 0x813 JUMP JUMPDEST SWAP2 POP PUSH2 0x836 DUP3 PUSH2 0x81D JUMP JUMPDEST PUSH0 DUP3 ADD SWAP1 POP SWAP2 SWAP1 POP JUMP JUMPDEST PUSH0 PUSH2 0x84A DUP3 PUSH2 0x820 JUMP JUMPDEST SWAP2 POP DUP2 SWAP1 POP SWAP2 SWAP1 POP JUMP JUMPDEST PUSH0 DUP3 DUP3 MSTORE PUSH1 0x20 DUP3 ADD SWAP1 POP SWAP3 SWAP2 POP POP JUMP JUMPDEST PUSH32 0x5265636965766520556E7375636365737366756C000000000000000000000000 PUSH0 DUP3 ADD MSTORE POP JUMP JUMPDEST PUSH0 PUSH2 0x898 PUSH1 0x14 DUP4 PUSH2 0x854 JUMP JUMPDEST SWAP2 POP PUSH2 0x8A3 DUP3 PUSH2 0x864 JUMP JUMPDEST PUSH1 0x20 DUP3 ADD SWAP1 POP SWAP2 SWAP1 POP JUMP JUMPDEST PUSH0 PUSH1 0x20 DUP3 ADD SWAP1 POP DUP2 DUP2 SUB PUSH0 DUP4 ADD MSTORE PUSH2 0x8C5 DUP2 PUSH2 0x88C JUMP JUMPDEST SWAP1 POP SWAP2 SWAP1 POP JUMP JUMPDEST PUSH0 DUP2 SWAP1 POP SWAP2 SWAP1 POP JUMP JUMPDEST PUSH32 0x4E487B7100000000000000000000000000000000000000000000000000000000 PUSH0 MSTORE PUSH1 0x11 PUSH1 0x4 MSTORE PUSH1 0x24 PUSH0 REVERT JUMPDEST PUSH0 PUSH2 0x90C DUP3 PUSH2 0x8CC JUMP JUMPDEST SWAP2 POP PUSH2 0x917 DUP4 PUSH2 0x8CC JUMP JUMPDEST SWAP3 POP DUP3 DUP3 MUL PUSH2 0x925 DUP2 PUSH2 0x8CC JUMP JUMPDEST SWAP2 POP DUP3 DUP3 DIV DUP5 EQ DUP4 ISZERO OR PUSH2 0x93C JUMPI PUSH2 0x93B PUSH2 0x8D5 JUMP JUMPDEST JUMPDEST POP SWAP3 SWAP2 POP POP JUMP JUMPDEST PUSH32 0x6D73672E76616C7565206E6565647320746F206265207477696365206F662076 PUSH0 DUP3 ADD MSTORE PUSH32 0x616C756500000000000000000000000000000000000000000000000000000000 PUSH1 0x20 DUP3 ADD MSTORE POP JUMP JUMPDEST PUSH0 PUSH2 0x99D PUSH1 0x24 DUP4 PUSH2 0x854 JUMP JUMPDEST SWAP2 POP PUSH2 0x9A8 DUP3 PUSH2 0x943 JUMP JUMPDEST PUSH1 0x40 DUP3 ADD SWAP1 POP SWAP2 SWAP1 POP JUMP JUMPDEST PUSH0 PUSH1 0x20 DUP3 ADD SWAP1 POP DUP2 DUP2 SUB PUSH0 DUP4 ADD MSTORE PUSH2 0x9CA DUP2 PUSH2 0x991 JUMP JUMPDEST SWAP1 POP SWAP2 SWAP1 POP JUMP INVALID LOG2 PUSH5 0x6970667358 0x22 SLT KECCAK256 LT MULMOD MCOPY INVALID SAR BLOBBASEFEE 0xC8 0xC6 PUSH30 0xC5789FB7F0B233E953C2096C18C235088D4DE14607D2F964736F6C634300 ADDMOD SHL STOP CALLER "
		},
		"gasEstimates": {
			"creation": {
				"codeDepositCost": "513400",
				"executionCost": "infinite",
				"totalCost": "infinite"
			},
			"external": {
				"abort()": "infinite",
				"confirmPurchase()": "infinite",
				"confirmRecieve()": "infinite",
				"refundSeller()": "infinite",
				"state()": "2627"
			}
		},
		"methodIdentifiers": {
			"abort()": "35a063b4",
			"confirmPurchase()": "d6960697",
			"confirmRecieve()": "a194a8ef",
			"refundSeller()": "c7981b1b",
			"state()": "c19d93fb"
		}
	},
	"abi": [
		{
			"inputs": [],
			"stateMutability": "payable",
			"type": "constructor"
		},
		{
			"inputs": [],
			"name": "notBuyer",
			"type": "error"
		},
		{
			"inputs": [],
			"name": "notInTheRightState",
			"type": "error"
		},
		{
			"inputs": [],
			"name": "notSeller",
			"type": "error"
		},
		{
			"inputs": [],
			"name": "refundUnsuccesful",
			"type": "error"
		},
		{
			"anonymous": false,
			"inputs": [],
			"name": "Aborted",
			"type": "event"
		},
		{
			"anonymous": false,
			"inputs": [],
			"name": "ItemRecieved",
			"type": "event"
		},
		{
			"anonymous": false,
			"inputs": [],
			"name": "PurchaseConfirmed",
			"type": "event"
		},
		{
			"anonymous": false,
			"inputs": [],
			"name": "SellerRefunded",
			"type": "event"
		},
		{
			"inputs": [],
			"name": "abort",
			"outputs": [],
			"stateMutability": "nonpayable",
			"type": "function"
		},
		{
			"inputs": [],
			"name": "confirmPurchase",
			"outputs": [],
			"stateMutability": "payable",
			"type": "function"
		},
		{
			"inputs": [],
			"name": "confirmRecieve",
			"outputs": [],
			"stateMutability": "nonpayable",
			"type": "function"
		},
		{
			"inputs": [],
			"name": "refundSeller",
			"outputs": [],
			"stateMutability": "nonpayable",
			"type": "function"
		},
		{
			"inputs": [],
			"name": "state",
			"outputs": [
				{
					"internalType": "enum SafeRemotePurchase.State",
					"name": "",
					"type": "uint8"
				}
			],
			"stateMutability": "view",
			"type": "function"
		}
	]
}